{
  "contractName": "RealEstateToken",
  "abi": [
    {
      "inputs": [
        {
          "internalType": "string",
          "name": "_name",
          "type": "string"
        },
        {
          "internalType": "string",
          "name": "_symbol",
          "type": "string"
        },
        {
          "internalType": "uint256",
          "name": "_totalTokenSupply",
          "type": "uint256"
        }
      ],
      "stateMutability": "nonpayable",
      "type": "constructor"
    },
    {
      "anonymous": false,
      "inputs": [
        {
          "indexed": true,
          "internalType": "address",
          "name": "owner",
          "type": "address"
        },
        {
          "indexed": true,
          "internalType": "address",
          "name": "spender",
          "type": "address"
        },
        {
          "indexed": false,
          "internalType": "uint256",
          "name": "value",
          "type": "uint256"
        }
      ],
      "name": "Approval",
      "type": "event"
    },
    {
      "anonymous": false,
      "inputs": [
        {
          "indexed": true,
          "internalType": "uint256",
          "name": "_rentDeposited",
          "type": "uint256"
        },
        {
          "indexed": true,
          "internalType": "uint256",
          "name": "_totalSupply",
          "type": "uint256"
        },
        {
          "indexed": true,
          "internalType": "uint256",
          "name": "_dividentPerToken",
          "type": "uint256"
        }
      ],
      "name": "DepositRent1",
      "type": "event"
    },
    {
      "anonymous": false,
      "inputs": [
        {
          "indexed": true,
          "internalType": "address",
          "name": "from",
          "type": "address"
        },
        {
          "indexed": true,
          "internalType": "address",
          "name": "to",
          "type": "address"
        },
        {
          "indexed": false,
          "internalType": "uint256",
          "name": "value",
          "type": "uint256"
        }
      ],
      "name": "Transfer",
      "type": "event"
    },
    {
      "stateMutability": "payable",
      "type": "fallback"
    },
    {
      "inputs": [
        {
          "internalType": "address",
          "name": "owner",
          "type": "address"
        },
        {
          "internalType": "address",
          "name": "spender",
          "type": "address"
        }
      ],
      "name": "allowance",
      "outputs": [
        {
          "internalType": "uint256",
          "name": "",
          "type": "uint256"
        }
      ],
      "stateMutability": "view",
      "type": "function"
    },
    {
      "inputs": [
        {
          "internalType": "address",
          "name": "spender",
          "type": "address"
        },
        {
          "internalType": "uint256",
          "name": "amount",
          "type": "uint256"
        }
      ],
      "name": "approve",
      "outputs": [
        {
          "internalType": "bool",
          "name": "",
          "type": "bool"
        }
      ],
      "stateMutability": "nonpayable",
      "type": "function"
    },
    {
      "inputs": [
        {
          "internalType": "address",
          "name": "account",
          "type": "address"
        }
      ],
      "name": "balanceOf",
      "outputs": [
        {
          "internalType": "uint256",
          "name": "",
          "type": "uint256"
        }
      ],
      "stateMutability": "view",
      "type": "function"
    },
    {
      "inputs": [],
      "name": "decimals",
      "outputs": [
        {
          "internalType": "uint8",
          "name": "",
          "type": "uint8"
        }
      ],
      "stateMutability": "view",
      "type": "function"
    },
    {
      "inputs": [
        {
          "internalType": "address",
          "name": "spender",
          "type": "address"
        },
        {
          "internalType": "uint256",
          "name": "subtractedValue",
          "type": "uint256"
        }
      ],
      "name": "decreaseAllowance",
      "outputs": [
        {
          "internalType": "bool",
          "name": "",
          "type": "bool"
        }
      ],
      "stateMutability": "nonpayable",
      "type": "function"
    },
    {
      "inputs": [
        {
          "internalType": "address",
          "name": "",
          "type": "address"
        }
      ],
      "name": "dividendBalanceOf",
      "outputs": [
        {
          "internalType": "uint256",
          "name": "",
          "type": "uint256"
        }
      ],
      "stateMutability": "view",
      "type": "function"
    },
    {
      "inputs": [
        {
          "internalType": "address",
          "name": "",
          "type": "address"
        }
      ],
      "name": "dividendCredited",
      "outputs": [
        {
          "internalType": "uint256",
          "name": "",
          "type": "uint256"
        }
      ],
      "stateMutability": "view",
      "type": "function"
    },
    {
      "inputs": [],
      "name": "dividendPerToken",
      "outputs": [
        {
          "internalType": "uint256",
          "name": "",
          "type": "uint256"
        }
      ],
      "stateMutability": "view",
      "type": "function"
    },
    {
      "inputs": [
        {
          "internalType": "address",
          "name": "spender",
          "type": "address"
        },
        {
          "internalType": "uint256",
          "name": "addedValue",
          "type": "uint256"
        }
      ],
      "name": "increaseAllowance",
      "outputs": [
        {
          "internalType": "bool",
          "name": "",
          "type": "bool"
        }
      ],
      "stateMutability": "nonpayable",
      "type": "function"
    },
    {
      "inputs": [],
      "name": "name",
      "outputs": [
        {
          "internalType": "string",
          "name": "",
          "type": "string"
        }
      ],
      "stateMutability": "view",
      "type": "function"
    },
    {
      "inputs": [],
      "name": "symbol",
      "outputs": [
        {
          "internalType": "string",
          "name": "",
          "type": "string"
        }
      ],
      "stateMutability": "view",
      "type": "function"
    },
    {
      "inputs": [],
      "name": "totalSupply",
      "outputs": [
        {
          "internalType": "uint256",
          "name": "",
          "type": "uint256"
        }
      ],
      "stateMutability": "view",
      "type": "function"
    },
    {
      "inputs": [
        {
          "internalType": "address",
          "name": "to",
          "type": "address"
        },
        {
          "internalType": "uint256",
          "name": "amount",
          "type": "uint256"
        }
      ],
      "name": "transfer",
      "outputs": [
        {
          "internalType": "bool",
          "name": "",
          "type": "bool"
        }
      ],
      "stateMutability": "nonpayable",
      "type": "function"
    },
    {
      "inputs": [
        {
          "internalType": "address",
          "name": "from",
          "type": "address"
        },
        {
          "internalType": "address",
          "name": "to",
          "type": "address"
        },
        {
          "internalType": "uint256",
          "name": "amount",
          "type": "uint256"
        }
      ],
      "name": "transferFrom",
      "outputs": [
        {
          "internalType": "bool",
          "name": "",
          "type": "bool"
        }
      ],
      "stateMutability": "nonpayable",
      "type": "function"
    },
    {
      "stateMutability": "payable",
      "type": "receive"
    },
    {
      "inputs": [],
      "name": "depositDividend",
      "outputs": [],
      "stateMutability": "payable",
      "type": "function"
    },
    {
      "inputs": [
        {
          "internalType": "address",
          "name": "_receiver",
          "type": "address"
        }
      ],
      "name": "withdraw",
      "outputs": [],
      "stateMutability": "nonpayable",
      "type": "function"
    }
  ],
  "bytecode": "0x60806040523480156200001157600080fd5b506040516200281138038062002811833981810160405281019062000037919062000602565b828281600390816200004a9190620008dd565b5080600490816200005c9190620008dd565b5050506200009b3362000074620000a460201b60201c565b600a62000082919062000b54565b836200008f919062000ba5565b620000ad60201b60201c565b50505062000de3565b60006012905090565b600073ffffffffffffffffffffffffffffffffffffffff168273ffffffffffffffffffffffffffffffffffffffff16036200011f576040517f08c379a0000000000000000000000000000000000000000000000000000000008152600401620001169062000c67565b60405180910390fd5b62000133600083836200021a60201b60201c565b806002600082825462000147919062000c89565b92505081905550806000808473ffffffffffffffffffffffffffffffffffffffff1673ffffffffffffffffffffffffffffffffffffffff168152602001908152602001600020600082825401925050819055508173ffffffffffffffffffffffffffffffffffffffff16600073ffffffffffffffffffffffffffffffffffffffff167fddf252ad1be2c89b69c2b068fc378daa952ba7f163c4a11628f55a4df523b3ef83604051620001fa919062000cf7565b60405180910390a362000216600083836200028d60201b60201c565b5050565b6200022b836200029260201b60201c565b15801562000247575062000245826200029260201b60201c565b155b1562000270576200025e83620002a560201b60201c565b6200026f82620002a560201b60201c565b5b620002888383836200042560201b620009d11760201c565b505050565b505050565b600080823b905060008111915050919050565b6000600760008373ffffffffffffffffffffffffffffffffffffffff1673ffffffffffffffffffffffffffffffffffffffff16815260200190815260200160002054600554620002f6919062000d14565b9050803073ffffffffffffffffffffffffffffffffffffffff166370a08231846040518263ffffffff1660e01b815260040162000334919062000d94565b602060405180830381865afa15801562000352573d6000803e3d6000fd5b505050506040513d601f19601f8201168201806040525081019062000378919062000db1565b62000384919062000ba5565b600660008473ffffffffffffffffffffffffffffffffffffffff1673ffffffffffffffffffffffffffffffffffffffff1681526020019081526020016000206000828254620003d4919062000c89565b92505081905550600554600760008473ffffffffffffffffffffffffffffffffffffffff1673ffffffffffffffffffffffffffffffffffffffff168152602001908152602001600020819055505050565b505050565b6000604051905090565b600080fd5b600080fd5b600080fd5b600080fd5b6000601f19601f8301169050919050565b7f4e487b7100000000000000000000000000000000000000000000000000000000600052604160045260246000fd5b620004938262000448565b810181811067ffffffffffffffff82111715620004b557620004b462000459565b5b80604052505050565b6000620004ca6200042a565b9050620004d8828262000488565b919050565b600067ffffffffffffffff821115620004fb57620004fa62000459565b5b620005068262000448565b9050602081019050919050565b60005b838110156200053357808201518184015260208101905062000516565b8381111562000543576000848401525b50505050565b6000620005606200055a84620004dd565b620004be565b9050828152602081018484840111156200057f576200057e62000443565b5b6200058c84828562000513565b509392505050565b600082601f830112620005ac57620005ab6200043e565b5b8151620005be84826020860162000549565b91505092915050565b6000819050919050565b620005dc81620005c7565b8114620005e857600080fd5b50565b600081519050620005fc81620005d1565b92915050565b6000806000606084860312156200061e576200061d62000434565b5b600084015167ffffffffffffffff8111156200063f576200063e62000439565b5b6200064d8682870162000594565b935050602084015167ffffffffffffffff81111562000671576200067062000439565b5b6200067f8682870162000594565b92505060406200069286828701620005eb565b9150509250925092565b600081519050919050565b7f4e487b7100000000000000000000000000000000000000000000000000000000600052602260045260246000fd5b60006002820490506001821680620006ef57607f821691505b602082108103620007055762000704620006a7565b5b50919050565b60008190508160005260206000209050919050565b60006020601f8301049050919050565b600082821b905092915050565b6000600883026200076f7fffffffffffffffffffffffffffffffffffffffffffffffffffffffffffffffff8262000730565b6200077b868362000730565b95508019841693508086168417925050509392505050565b6000819050919050565b6000620007be620007b8620007b284620005c7565b62000793565b620005c7565b9050919050565b6000819050919050565b620007da836200079d565b620007f2620007e982620007c5565b8484546200073d565b825550505050565b600090565b62000809620007fa565b62000816818484620007cf565b505050565b5b818110156200083e5762000832600082620007ff565b6001810190506200081c565b5050565b601f8211156200088d5762000857816200070b565b620008628462000720565b8101602085101562000872578190505b6200088a620008818562000720565b8301826200081b565b50505b505050565b600082821c905092915050565b6000620008b26000198460080262000892565b1980831691505092915050565b6000620008cd83836200089f565b9150826002028217905092915050565b620008e8826200069c565b67ffffffffffffffff81111562000904576200090362000459565b5b620009108254620006d6565b6200091d82828562000842565b600060209050601f83116001811462000955576000841562000940578287015190505b6200094c8582620008bf565b865550620009bc565b601f19841662000965866200070b565b60005b828110156200098f5784890151825560018201915060208501945060208101905062000968565b86831015620009af5784890151620009ab601f8916826200089f565b8355505b6001600288020188555050505b505050505050565b7f4e487b7100000000000000000000000000000000000000000000000000000000600052601160045260246000fd5b60008160011c9050919050565b6000808291508390505b600185111562000a525780860481111562000a2a5762000a29620009c4565b5b600185161562000a3a5780820291505b808102905062000a4a85620009f3565b945062000a0a565b94509492505050565b60008262000a6d576001905062000b40565b8162000a7d576000905062000b40565b816001811462000a96576002811462000aa15762000ad7565b600191505062000b40565b60ff84111562000ab65762000ab5620009c4565b5b8360020a91508482111562000ad05762000acf620009c4565b5b5062000b40565b5060208310610133831016604e8410600b841016171562000b115782820a90508381111562000b0b5762000b0a620009c4565b5b62000b40565b62000b20848484600162000a00565b9250905081840481111562000b3a5762000b39620009c4565b5b81810290505b9392505050565b600060ff82169050919050565b600062000b6182620005c7565b915062000b6e8362000b47565b925062000b9d7fffffffffffffffffffffffffffffffffffffffffffffffffffffffffffffffff848462000a5b565b905092915050565b600062000bb282620005c7565b915062000bbf83620005c7565b9250817fffffffffffffffffffffffffffffffffffffffffffffffffffffffffffffffff048311821515161562000bfb5762000bfa620009c4565b5b828202905092915050565b600082825260208201905092915050565b7f45524332303a206d696e7420746f20746865207a65726f206164647265737300600082015250565b600062000c4f601f8362000c06565b915062000c5c8262000c17565b602082019050919050565b6000602082019050818103600083015262000c828162000c40565b9050919050565b600062000c9682620005c7565b915062000ca383620005c7565b9250827fffffffffffffffffffffffffffffffffffffffffffffffffffffffffffffffff0382111562000cdb5762000cda620009c4565b5b828201905092915050565b62000cf181620005c7565b82525050565b600060208201905062000d0e600083018462000ce6565b92915050565b600062000d2182620005c7565b915062000d2e83620005c7565b92508282101562000d445762000d43620009c4565b5b828203905092915050565b600073ffffffffffffffffffffffffffffffffffffffff82169050919050565b600062000d7c8262000d4f565b9050919050565b62000d8e8162000d6f565b82525050565b600060208201905062000dab600083018462000d83565b92915050565b60006020828403121562000dca5762000dc962000434565b5b600062000dda84828501620005eb565b91505092915050565b611a1e8062000df36000396000f3fe6080604052600436106100f75760003560e01c806377ec0feb1161008a578063a9059cbb11610059578063a9059cbb1461033b578063dd62ed3e14610378578063e083d4c8146103b5578063f86836d9146103f2576100fe565b806377ec0feb1461029e57806395d89b41146102c9578063a289d187146102f4578063a457c2d7146102fe576100fe565b8063313ce567116100c6578063313ce567146101d057806339509351146101fb57806351cff8d91461023857806370a0823114610261576100fe565b806306fdde0314610100578063095ea7b31461012b57806318160ddd1461016857806323b872dd14610193576100fe565b366100fe57005b005b34801561010c57600080fd5b5061011561042f565b6040516101229190611113565b60405180910390f35b34801561013757600080fd5b50610152600480360381019061014d91906111ce565b6104c1565b60405161015f9190611229565b60405180910390f35b34801561017457600080fd5b5061017d6104e4565b60405161018a9190611253565b60405180910390f35b34801561019f57600080fd5b506101ba60048036038101906101b5919061126e565b6104ee565b6040516101c79190611229565b60405180910390f35b3480156101dc57600080fd5b506101e561051d565b6040516101f291906112dd565b60405180910390f35b34801561020757600080fd5b50610222600480360381019061021d91906111ce565b610526565b60405161022f9190611229565b60405180910390f35b34801561024457600080fd5b5061025f600480360381019061025a91906112f8565b61055d565b005b34801561026d57600080fd5b50610288600480360381019061028391906112f8565b61066d565b6040516102959190611253565b60405180910390f35b3480156102aa57600080fd5b506102b36106b5565b6040516102c09190611253565b60405180910390f35b3480156102d557600080fd5b506102de6106bb565b6040516102eb9190611113565b60405180910390f35b6102fc61074d565b005b34801561030a57600080fd5b50610325600480360381019061032091906111ce565b610880565b6040516103329190611229565b60405180910390f35b34801561034757600080fd5b50610362600480360381019061035d91906111ce565b6108f7565b60405161036f9190611229565b60405180910390f35b34801561038457600080fd5b5061039f600480360381019061039a9190611325565b61091a565b6040516103ac9190611253565b60405180910390f35b3480156103c157600080fd5b506103dc60048036038101906103d791906112f8565b6109a1565b6040516103e99190611253565b60405180910390f35b3480156103fe57600080fd5b50610419600480360381019061041491906112f8565b6109b9565b6040516104269190611253565b60405180910390f35b60606003805461043e90611394565b80601f016020809104026020016040519081016040528092919081815260200182805461046a90611394565b80156104b75780601f1061048c576101008083540402835291602001916104b7565b820191906000526020600020905b81548152906001019060200180831161049a57829003601f168201915b5050505050905090565b6000806104cc6109d6565b90506104d98185856109de565b600191505092915050565b6000600254905090565b6000806104f96109d6565b9050610506858285610ba7565b610511858585610c33565b60019150509392505050565b60006012905090565b6000806105316109d6565b9050610552818585610543858961091a565b61054d91906113f4565b6109de565b600191505092915050565b61056681610ea9565b6000600660008373ffffffffffffffffffffffffffffffffffffffff1673ffffffffffffffffffffffffffffffffffffffff1681526020019081526020016000205490506000600660008473ffffffffffffffffffffffffffffffffffffffff1673ffffffffffffffffffffffffffffffffffffffff1681526020019081526020016000208190555060008273ffffffffffffffffffffffffffffffffffffffff166108fc839081150290604051600060405180830381858888f19350505050905080610668576040517f08c379a000000000000000000000000000000000000000000000000000000000815260040161065f90611496565b60405180910390fd5b505050565b60008060008373ffffffffffffffffffffffffffffffffffffffff1673ffffffffffffffffffffffffffffffffffffffff168152602001908152602001600020549050919050565b60055481565b6060600480546106ca90611394565b80601f01602080910402602001604051908101604052809291908181526020018280546106f690611394565b80156107435780601f1061071857610100808354040283529160200191610743565b820191906000526020600020905b81548152906001019060200180831161072657829003601f168201915b5050505050905090565b3073ffffffffffffffffffffffffffffffffffffffff166318160ddd6040518163ffffffff1660e01b8152600401602060405180830381865afa158015610798573d6000803e3d6000fd5b505050506040513d601f19601f820116820180604052508101906107bc91906114cb565b346107c79190611527565b600560008282546107d891906113f4565b925050819055506005543073ffffffffffffffffffffffffffffffffffffffff166318160ddd6040518163ffffffff1660e01b8152600401602060405180830381865afa15801561082d573d6000803e3d6000fd5b505050506040513d601f19601f8201168201806040525081019061085191906114cb565b347f2229fe50c1cd7b9133e4e9dd4e5dde0d9cc1bf031e35c9b5d8047f31ab8ff12360405160405180910390a4565b60008061088b6109d6565b90506000610899828661091a565b9050838110156108de576040517f08c379a00000000000000000000000000000000000000000000000000000000081526004016108d5906115ca565b60405180910390fd5b6108eb82868684036109de565b60019250505092915050565b6000806109026109d6565b905061090f818585610c33565b600191505092915050565b6000600160008473ffffffffffffffffffffffffffffffffffffffff1673ffffffffffffffffffffffffffffffffffffffff16815260200190815260200160002060008373ffffffffffffffffffffffffffffffffffffffff1673ffffffffffffffffffffffffffffffffffffffff16815260200190815260200160002054905092915050565b60066020528060005260406000206000915090505481565b60076020528060005260406000206000915090505481565b505050565b600033905090565b600073ffffffffffffffffffffffffffffffffffffffff168373ffffffffffffffffffffffffffffffffffffffff1603610a4d576040517f08c379a0000000000000000000000000000000000000000000000000000000008152600401610a449061165c565b60405180910390fd5b600073ffffffffffffffffffffffffffffffffffffffff168273ffffffffffffffffffffffffffffffffffffffff1603610abc576040517f08c379a0000000000000000000000000000000000000000000000000000000008152600401610ab3906116ee565b60405180910390fd5b80600160008573ffffffffffffffffffffffffffffffffffffffff1673ffffffffffffffffffffffffffffffffffffffff16815260200190815260200160002060008473ffffffffffffffffffffffffffffffffffffffff1673ffffffffffffffffffffffffffffffffffffffff168152602001908152602001600020819055508173ffffffffffffffffffffffffffffffffffffffff168373ffffffffffffffffffffffffffffffffffffffff167f8c5be1e5ebec7d5bd14f71427d1e84f3dd0314c0f7b2291e5b200ac8c7c3b92583604051610b9a9190611253565b60405180910390a3505050565b6000610bb3848461091a565b90507fffffffffffffffffffffffffffffffffffffffffffffffffffffffffffffffff8114610c2d5781811015610c1f576040517f08c379a0000000000000000000000000000000000000000000000000000000008152600401610c169061175a565b60405180910390fd5b610c2c84848484036109de565b5b50505050565b600073ffffffffffffffffffffffffffffffffffffffff168373ffffffffffffffffffffffffffffffffffffffff1603610ca2576040517f08c379a0000000000000000000000000000000000000000000000000000000008152600401610c99906117ec565b60405180910390fd5b600073ffffffffffffffffffffffffffffffffffffffff168273ffffffffffffffffffffffffffffffffffffffff1603610d11576040517f08c379a0000000000000000000000000000000000000000000000000000000008152600401610d089061187e565b60405180910390fd5b610d1c83838361101e565b60008060008573ffffffffffffffffffffffffffffffffffffffff1673ffffffffffffffffffffffffffffffffffffffff16815260200190815260200160002054905081811015610da2576040517f08c379a0000000000000000000000000000000000000000000000000000000008152600401610d9990611910565b60405180910390fd5b8181036000808673ffffffffffffffffffffffffffffffffffffffff1673ffffffffffffffffffffffffffffffffffffffff16815260200190815260200160002081905550816000808573ffffffffffffffffffffffffffffffffffffffff1673ffffffffffffffffffffffffffffffffffffffff168152602001908152602001600020600082825401925050819055508273ffffffffffffffffffffffffffffffffffffffff168473ffffffffffffffffffffffffffffffffffffffff167fddf252ad1be2c89b69c2b068fc378daa952ba7f163c4a11628f55a4df523b3ef84604051610e909190611253565b60405180910390a3610ea3848484611062565b50505050565b6000600760008373ffffffffffffffffffffffffffffffffffffffff1673ffffffffffffffffffffffffffffffffffffffff16815260200190815260200160002054600554610ef89190611930565b9050803073ffffffffffffffffffffffffffffffffffffffff166370a08231846040518263ffffffff1660e01b8152600401610f349190611973565b602060405180830381865afa158015610f51573d6000803e3d6000fd5b505050506040513d601f19601f82011682018060405250810190610f7591906114cb565b610f7f919061198e565b600660008473ffffffffffffffffffffffffffffffffffffffff1673ffffffffffffffffffffffffffffffffffffffff1681526020019081526020016000206000828254610fcd91906113f4565b92505081905550600554600760008473ffffffffffffffffffffffffffffffffffffffff1673ffffffffffffffffffffffffffffffffffffffff168152602001908152602001600020819055505050565b61102783611067565b15801561103a575061103882611067565b155b156110525761104883610ea9565b61105182610ea9565b5b61105d8383836109d1565b505050565b505050565b600080823b905060008111915050919050565b600081519050919050565b600082825260208201905092915050565b60005b838110156110b4578082015181840152602081019050611099565b838111156110c3576000848401525b50505050565b6000601f19601f8301169050919050565b60006110e58261107a565b6110ef8185611085565b93506110ff818560208601611096565b611108816110c9565b840191505092915050565b6000602082019050818103600083015261112d81846110da565b905092915050565b600080fd5b600073ffffffffffffffffffffffffffffffffffffffff82169050919050565b60006111658261113a565b9050919050565b6111758161115a565b811461118057600080fd5b50565b6000813590506111928161116c565b92915050565b6000819050919050565b6111ab81611198565b81146111b657600080fd5b50565b6000813590506111c8816111a2565b92915050565b600080604083850312156111e5576111e4611135565b5b60006111f385828601611183565b9250506020611204858286016111b9565b9150509250929050565b60008115159050919050565b6112238161120e565b82525050565b600060208201905061123e600083018461121a565b92915050565b61124d81611198565b82525050565b60006020820190506112686000830184611244565b92915050565b60008060006060848603121561128757611286611135565b5b600061129586828701611183565b93505060206112a686828701611183565b92505060406112b7868287016111b9565b9150509250925092565b600060ff82169050919050565b6112d7816112c1565b82525050565b60006020820190506112f260008301846112ce565b92915050565b60006020828403121561130e5761130d611135565b5b600061131c84828501611183565b91505092915050565b6000806040838503121561133c5761133b611135565b5b600061134a85828601611183565b925050602061135b85828601611183565b9150509250929050565b7f4e487b7100000000000000000000000000000000000000000000000000000000600052602260045260246000fd5b600060028204905060018216806113ac57607f821691505b6020821081036113bf576113be611365565b5b50919050565b7f4e487b7100000000000000000000000000000000000000000000000000000000600052601160045260246000fd5b60006113ff82611198565b915061140a83611198565b9250827fffffffffffffffffffffffffffffffffffffffffffffffffffffffffffffffff0382111561143f5761143e6113c5565b5b828201905092915050565b7f4661696c656420746f2077697468647261772072656e74000000000000000000600082015250565b6000611480601783611085565b915061148b8261144a565b602082019050919050565b600060208201905081810360008301526114af81611473565b9050919050565b6000815190506114c5816111a2565b92915050565b6000602082840312156114e1576114e0611135565b5b60006114ef848285016114b6565b91505092915050565b7f4e487b7100000000000000000000000000000000000000000000000000000000600052601260045260246000fd5b600061153282611198565b915061153d83611198565b92508261154d5761154c6114f8565b5b828204905092915050565b7f45524332303a2064656372656173656420616c6c6f77616e63652062656c6f7760008201527f207a65726f000000000000000000000000000000000000000000000000000000602082015250565b60006115b4602583611085565b91506115bf82611558565b604082019050919050565b600060208201905081810360008301526115e3816115a7565b9050919050565b7f45524332303a20617070726f76652066726f6d20746865207a65726f2061646460008201527f7265737300000000000000000000000000000000000000000000000000000000602082015250565b6000611646602483611085565b9150611651826115ea565b604082019050919050565b6000602082019050818103600083015261167581611639565b9050919050565b7f45524332303a20617070726f766520746f20746865207a65726f20616464726560008201527f7373000000000000000000000000000000000000000000000000000000000000602082015250565b60006116d8602283611085565b91506116e38261167c565b604082019050919050565b60006020820190508181036000830152611707816116cb565b9050919050565b7f45524332303a20696e73756666696369656e7420616c6c6f77616e6365000000600082015250565b6000611744601d83611085565b915061174f8261170e565b602082019050919050565b6000602082019050818103600083015261177381611737565b9050919050565b7f45524332303a207472616e736665722066726f6d20746865207a65726f20616460008201527f6472657373000000000000000000000000000000000000000000000000000000602082015250565b60006117d6602583611085565b91506117e18261177a565b604082019050919050565b60006020820190508181036000830152611805816117c9565b9050919050565b7f45524332303a207472616e7366657220746f20746865207a65726f206164647260008201527f6573730000000000000000000000000000000000000000000000000000000000602082015250565b6000611868602383611085565b91506118738261180c565b604082019050919050565b600060208201905081810360008301526118978161185b565b9050919050565b7f45524332303a207472616e7366657220616d6f756e742065786365656473206260008201527f616c616e63650000000000000000000000000000000000000000000000000000602082015250565b60006118fa602683611085565b91506119058261189e565b604082019050919050565b60006020820190508181036000830152611929816118ed565b9050919050565b600061193b82611198565b915061194683611198565b925082821015611959576119586113c5565b5b828203905092915050565b61196d8161115a565b82525050565b60006020820190506119886000830184611964565b92915050565b600061199982611198565b91506119a483611198565b9250817fffffffffffffffffffffffffffffffffffffffffffffffffffffffffffffffff04831182151516156119dd576119dc6113c5565b5b82820290509291505056fea264697066735822122018571a48bef2987a8b382b332119e640de737cac86ff04eaa21ed73d30b84f2164736f6c634300080f0033",
  "immutableReferences": {},
  "source": "// SPDX-License-Identifier: MIT\r\npragma solidity >=0.4.22 <0.9.0;\r\n\r\nimport \"@openzeppelin/contracts/token/ERC20/ERC20.sol\";\r\n\r\ncontract RealEstateToken is ERC20 {\r\n    uint256 public dividendPerToken;\r\n    mapping(address => uint256) public dividendBalanceOf;\r\n    mapping(address => uint256) public dividendCredited;\r\n    address baseContract;\r\n\r\n    event DepositRent1(\r\n        uint indexed _rentDeposited,\r\n        uint indexed _totalSupply,\r\n        uint indexed _dividentPerToken\r\n    );\r\n\r\n    receive() external payable {}\r\n\r\n    fallback() external payable {}\r\n\r\n    modifier onlyBaseContract() {\r\n        require(msg.sender == baseContract, \"You are not authorized\");\r\n        _;\r\n    }\r\n\r\n    constructor(\r\n        string memory _name,\r\n        string memory _symbol,\r\n        uint _totalTokenSupply\r\n    ) ERC20(_name, _symbol) {\r\n        _mint(msg.sender, _totalTokenSupply * (10 ** decimals()));\r\n    }\r\n\r\n    function isContract(address _addr) internal view returns (bool) {\r\n        uint256 size;\r\n        assembly {\r\n            size := extcodesize(_addr)\r\n        }\r\n        return size > 0;\r\n    }\r\n\r\n    function _beforeTokenTransfer(\r\n        address from,\r\n        address to,\r\n        uint256 amount\r\n    ) internal virtual override {\r\n        if (!isContract(from) && !isContract(to)) {\r\n            updateDividend(from);\r\n            updateDividend(to);\r\n        }\r\n        super._beforeTokenTransfer(from, to, amount);\r\n    }\r\n\r\n    function depositDividend() external payable {\r\n        dividendPerToken += (msg.value / this.totalSupply());\r\n        emit DepositRent1(msg.value, this.totalSupply(), dividendPerToken);\r\n    }\r\n\r\n    function updateDividend(address _addr) internal {\r\n        uint256 owed = dividendPerToken - dividendCredited[_addr];\r\n        dividendBalanceOf[_addr] += this.balanceOf(_addr) * owed;\r\n        dividendCredited[_addr] = dividendPerToken;\r\n    }\r\n\r\n    function withdraw(address _receiver) external {\r\n        updateDividend(_receiver);\r\n        uint256 amount = dividendBalanceOf[_receiver];\r\n        dividendBalanceOf[_receiver] = 0;\r\n        bool sent = payable(_receiver).send(amount);\r\n        require(sent, \"Failed to withdraw rent\");\r\n    }\r\n}\r\n",
  "sourcePath": "/Users/prasenjitgupta/Desktop/Blockchain/RealEstateTokanization/contracts/RealEstateToken.sol",
  "compiler": {
    "name": "solc",
    "version": "0.8.15+commit.e14f2714.Emscripten.clang"
  },
  "schemaVersion": "3.4.8",
  "updatedAt": "2023-05-15T14:12:52.977Z",
  "devdoc": {
    "kind": "dev",
    "methods": {
      "allowance(address,address)": {
        "details": "See {IERC20-allowance}."
      },
      "approve(address,uint256)": {
        "details": "See {IERC20-approve}. NOTE: If `amount` is the maximum `uint256`, the allowance is not updated on `transferFrom`. This is semantically equivalent to an infinite approval. Requirements: - `spender` cannot be the zero address."
      },
      "balanceOf(address)": {
        "details": "See {IERC20-balanceOf}."
      },
      "decimals()": {
        "details": "Returns the number of decimals used to get its user representation. For example, if `decimals` equals `2`, a balance of `505` tokens should be displayed to a user as `5.05` (`505 / 10 ** 2`). Tokens usually opt for a value of 18, imitating the relationship between Ether and Wei. This is the value {ERC20} uses, unless this function is overridden; NOTE: This information is only used for _display_ purposes: it in no way affects any of the arithmetic of the contract, including {IERC20-balanceOf} and {IERC20-transfer}."
      },
      "decreaseAllowance(address,uint256)": {
        "details": "Atomically decreases the allowance granted to `spender` by the caller. This is an alternative to {approve} that can be used as a mitigation for problems described in {IERC20-approve}. Emits an {Approval} event indicating the updated allowance. Requirements: - `spender` cannot be the zero address. - `spender` must have allowance for the caller of at least `subtractedValue`."
      },
      "increaseAllowance(address,uint256)": {
        "details": "Atomically increases the allowance granted to `spender` by the caller. This is an alternative to {approve} that can be used as a mitigation for problems described in {IERC20-approve}. Emits an {Approval} event indicating the updated allowance. Requirements: - `spender` cannot be the zero address."
      },
      "name()": {
        "details": "Returns the name of the token."
      },
      "symbol()": {
        "details": "Returns the symbol of the token, usually a shorter version of the name."
      },
      "totalSupply()": {
        "details": "See {IERC20-totalSupply}."
      },
      "transfer(address,uint256)": {
        "details": "See {IERC20-transfer}. Requirements: - `to` cannot be the zero address. - the caller must have a balance of at least `amount`."
      },
      "transferFrom(address,address,uint256)": {
        "details": "See {IERC20-transferFrom}. Emits an {Approval} event indicating the updated allowance. This is not required by the EIP. See the note at the beginning of {ERC20}. NOTE: Does not update the allowance if the current allowance is the maximum `uint256`. Requirements: - `from` and `to` cannot be the zero address. - `from` must have a balance of at least `amount`. - the caller must have allowance for ``from``'s tokens of at least `amount`."
      }
    },
    "version": 1
  },
  "userdoc": {
    "kind": "user",
    "methods": {},
    "version": 1
  }
}