{
  "contractName": "RealEstateInvestment",
  "abi": [
    {
      "anonymous": false,
      "inputs": [
        {
          "indexed": false,
          "internalType": "address",
          "name": "_sender",
          "type": "address"
        },
        {
          "indexed": false,
          "internalType": "uint256",
          "name": "_amount",
          "type": "uint256"
        }
      ],
      "name": "DepositRent",
      "type": "event"
    },
    {
      "anonymous": false,
      "inputs": [
        {
          "indexed": false,
          "internalType": "address",
          "name": "_sender",
          "type": "address"
        }
      ],
      "name": "DividendWithdraw",
      "type": "event"
    },
    {
      "anonymous": false,
      "inputs": [
        {
          "indexed": false,
          "internalType": "address",
          "name": "_addr",
          "type": "address"
        },
        {
          "indexed": false,
          "internalType": "string",
          "name": "_msg",
          "type": "string"
        }
      ],
      "name": "TokenClaimLog",
      "type": "event"
    },
    {
      "inputs": [
        {
          "internalType": "uint256",
          "name": "",
          "type": "uint256"
        }
      ],
      "name": "properties",
      "outputs": [
        {
          "internalType": "contract RealEstateToken",
          "name": "token",
          "type": "address"
        },
        {
          "internalType": "uint256",
          "name": "minimumInvestmentInEther",
          "type": "uint256"
        },
        {
          "internalType": "uint256",
          "name": "maximumInvestmentInEther",
          "type": "uint256"
        },
        {
          "internalType": "uint256",
          "name": "openForInvertors",
          "type": "uint256"
        },
        {
          "internalType": "address",
          "name": "propertyOwner",
          "type": "address"
        },
        {
          "internalType": "uint256",
          "name": "totalFundRaised",
          "type": "uint256"
        },
        {
          "internalType": "uint256",
          "name": "ICOCutOffPeriod",
          "type": "uint256"
        }
      ],
      "stateMutability": "view",
      "type": "function",
      "constant": true
    },
    {
      "inputs": [
        {
          "internalType": "uint256",
          "name": "_minimumInvestmentInEther",
          "type": "uint256"
        },
        {
          "internalType": "uint256",
          "name": "_maximumInvestmentInEther",
          "type": "uint256"
        },
        {
          "internalType": "uint256",
          "name": "_openForInvertors",
          "type": "uint256"
        },
        {
          "internalType": "string",
          "name": "_tokenName",
          "type": "string"
        },
        {
          "internalType": "string",
          "name": "_tokenSymbol",
          "type": "string"
        },
        {
          "internalType": "uint256",
          "name": "_totalTokenSupply",
          "type": "uint256"
        }
      ],
      "name": "listPropertyByOwner",
      "outputs": [],
      "stateMutability": "nonpayable",
      "type": "function"
    },
    {
      "inputs": [
        {
          "internalType": "uint256",
          "name": "_propertyId",
          "type": "uint256"
        },
        {
          "internalType": "uint256",
          "name": "_amountInEther",
          "type": "uint256"
        }
      ],
      "name": "investInProperty",
      "outputs": [],
      "stateMutability": "payable",
      "type": "function",
      "payable": true
    },
    {
      "inputs": [
        {
          "internalType": "uint256",
          "name": "_propertyId",
          "type": "uint256"
        }
      ],
      "name": "claimToken",
      "outputs": [],
      "stateMutability": "nonpayable",
      "type": "function"
    },
    {
      "inputs": [
        {
          "internalType": "uint256",
          "name": "_propertyId",
          "type": "uint256"
        }
      ],
      "name": "depositRent",
      "outputs": [],
      "stateMutability": "payable",
      "type": "function",
      "payable": true
    },
    {
      "inputs": [
        {
          "internalType": "uint256",
          "name": "_propertyId",
          "type": "uint256"
        }
      ],
      "name": "withDrawDividend",
      "outputs": [],
      "stateMutability": "nonpayable",
      "type": "function"
    }
  ],
  "bytecode": "0x608060405234801561001057600080fd5b506001600081905550614c02806100286000396000f3fe6080604052600436106200005b5760003560e01c8062096024146200006057806354302a6d146200008e578063a9e7c2e514620000ae578063d83bce8514620000dc578063f6e96ced146200010a578063f7b10808146200012a575b600080fd5b3480156200006d57600080fd5b506200008c6004803603810190620000869190620015d4565b62000174565b005b620000ac6004803603810190620000a69190620016ae565b620005dc565b005b348015620000bb57600080fd5b50620000da6004803603810190620000d49190620016f5565b62000846565b005b348015620000e957600080fd5b50620001086004803603810190620001029190620016f5565b62000e8e565b005b620001286004803603810190620001229190620016f5565b6200101f565b005b3480156200013757600080fd5b50620001566004803603810190620001509190620016f5565b62001283565b6040516200016b9796959493929190620017e8565b60405180910390f35b6200017e62001305565b60008611620001c4576040517f08c379a0000000000000000000000000000000000000000000000000000000008152600401620001bb90620018ec565b60405180910390fd5b600085116200020a576040517f08c379a0000000000000000000000000000000000000000000000000000000008152600401620002019062001984565b60405180910390fd5b6000841180156200021b5750606484105b6200025d576040517f08c379a00000000000000000000000000000000000000000000000000000000081526004016200025490620019f6565b60405180910390fd5b60008111620002a3576040517f08c379a00000000000000000000000000000000000000000000000000000000081526004016200029a9062001a68565b60405180910390fd5b6000838383604051620002b69062001415565b620002c49392919062001b0c565b604051809103906000f080158015620002e1573d6000803e3d6000fd5b50905060006064868373ffffffffffffffffffffffffffffffffffffffff166318160ddd6040518163ffffffff1660e01b8152600401602060405180830381865afa15801562000335573d6000803e3d6000fd5b505050506040513d601f19601f820116820180604052508101906200035b919062001b6e565b62000367919062001bcf565b62000373919062001c5f565b90506000818373ffffffffffffffffffffffffffffffffffffffff166318160ddd6040518163ffffffff1660e01b8152600401602060405180830381865afa158015620003c4573d6000803e3d6000fd5b505050506040513d601f19601f82011682018060405250810190620003ea919062001b6e565b620003f6919062001c97565b905080600460006200040762001357565b815260200190815260200160002060003373ffffffffffffffffffffffffffffffffffffffff1673ffffffffffffffffffffffffffffffffffffffff168152602001908152602001600020600082825462000463919062001cd2565b9250508190555060006040518060e001604052808573ffffffffffffffffffffffffffffffffffffffff1681526020018b81526020018a81526020018981526020013373ffffffffffffffffffffffffffffffffffffffff16815260200160008152602001600542620004d7919062001cd2565b81525090508060026000620004eb62001357565b815260200190815260200160002060008201518160000160006101000a81548173ffffffffffffffffffffffffffffffffffffffff021916908373ffffffffffffffffffffffffffffffffffffffff16021790555060208201518160010155604082015181600201556060820151816003015560808201518160040160006101000a81548173ffffffffffffffffffffffffffffffffffffffff021916908373ffffffffffffffffffffffffffffffffffffffff16021790555060a0820151816005015560c08201518160060155905050620005c66200136a565b50505050620005d462001378565b505050505050565b81620005e88162001382565b6200062a576040517f08c379a0000000000000000000000000000000000000000000000000000000008152600401620006219062001d7f565b60405180910390fd5b6200063462001305565b3482148015620006445750600082115b62000686576040517f08c379a00000000000000000000000000000000000000000000000000000000081526004016200067d9062001df1565b60405180910390fd5b600060026000858152602001908152602001600020905080600601544210620006e6576040517f08c379a0000000000000000000000000000000000000000000000000000000008152600401620006dd9062001e63565b60405180910390fd5b8060020154838260050154620006fd919062001cd2565b111562000741576040517f08c379a0000000000000000000000000000000000000000000000000000000008152600401620007389062001ed5565b60405180910390fd5b6000349050346003600087815260200190815260200160002060003373ffffffffffffffffffffffffffffffffffffffff1673ffffffffffffffffffffffffffffffffffffffff1681526020019081526020016000206000828254620007a8919062001cd2565b92505081905550806004600087815260200190815260200160002060003373ffffffffffffffffffffffffffffffffffffffff1673ffffffffffffffffffffffffffffffffffffffff168152602001908152602001600020600082825462000811919062001cd2565b92505081905550838260050160008282546200082e919062001cd2565b9250508190555050506200084162001378565b505050565b80620008528162001382565b62000894576040517f08c379a00000000000000000000000000000000000000000000000000000000081526004016200088b9062001d7f565b60405180910390fd5b6200089e62001305565b600060026000848152602001908152602001600020905080600601544211620008fe576040517f08c379a0000000000000000000000000000000000000000000000000000000008152600401620008f59062001f47565b60405180910390fd5b60008160000160009054906101000a900473ffffffffffffffffffffffffffffffffffffffff16905060006003600086815260200190815260200160002060003373ffffffffffffffffffffffffffffffffffffffff1673ffffffffffffffffffffffffffffffffffffffff1681526020019081526020016000205403620009bd576040517f08c379a0000000000000000000000000000000000000000000000000000000008152600401620009b49062001fb9565b60405180910390fd5b60006004600086815260200190815260200160002060003373ffffffffffffffffffffffffffffffffffffffff1673ffffffffffffffffffffffffffffffffffffffff168152602001908152602001600020541162000a53576040517f08c379a000000000000000000000000000000000000000000000000000000000815260040162000a4a906200202b565b60405180910390fd5b816001015482600501541062000cfa5760006004600086815260200190815260200160002060003373ffffffffffffffffffffffffffffffffffffffff1673ffffffffffffffffffffffffffffffffffffffff1681526020019081526020016000205490508260000160009054906101000a900473ffffffffffffffffffffffffffffffffffffffff1673ffffffffffffffffffffffffffffffffffffffff1663a9059cbb33836040518363ffffffff1660e01b815260040162000b199291906200204d565b6020604051808303816000875af115801562000b39573d6000803e3d6000fd5b505050506040513d601f19601f8201168201806040525081019062000b5f9190620020b7565b5060006004600087815260200190815260200160002060003373ffffffffffffffffffffffffffffffffffffffff1673ffffffffffffffffffffffffffffffffffffffff1681526020019081526020016000208190555060008273ffffffffffffffffffffffffffffffffffffffff166003600088815260200190815260200160002060003373ffffffffffffffffffffffffffffffffffffffff1673ffffffffffffffffffffffffffffffffffffffff1681526020019081526020016000205460405162000c2e906200211e565b60006040518083038185875af1925050503d806000811462000c6d576040519150601f19603f3d011682016040523d82523d6000602084013e62000c72565b606091505b505090508062000cb9576040517f08c379a000000000000000000000000000000000000000000000000000000000815260040162000cb09062002185565b60405180910390fd5b7fd3df97e77b55db09891c7ba0d7cf08017f053514f1d7a70e06d2a943595176153360405162000cea9190620021f7565b60405180910390a1505062000e7e565b60006004600086815260200190815260200160002060003373ffffffffffffffffffffffffffffffffffffffff1673ffffffffffffffffffffffffffffffffffffffff1681526020019081526020016000208190555060006003600086815260200190815260200160002060003373ffffffffffffffffffffffffffffffffffffffff1673ffffffffffffffffffffffffffffffffffffffff16815260200190815260200160002054905060006003600087815260200190815260200160002060003373ffffffffffffffffffffffffffffffffffffffff1673ffffffffffffffffffffffffffffffffffffffff168152602001908152602001600020819055503373ffffffffffffffffffffffffffffffffffffffff166108fc829081150290604051600060405180830381858888f1935050505015801562000e42573d6000803e3d6000fd5b507fd3df97e77b55db09891c7ba0d7cf08017f053514f1d7a70e06d2a943595176153360405162000e7491906200229f565b60405180910390a1505b505062000e8a62001378565b5050565b62000e9862001305565b62000ea38162001382565b62000ee5576040517f08c379a000000000000000000000000000000000000000000000000000000000815260040162000edc9062001d7f565b60405180910390fd5b60006002600083815260200190815260200160002090508060060154421162000f45576040517f08c379a000000000000000000000000000000000000000000000000000000000815260040162000f3c9062001f47565b60405180910390fd5b8060000160009054906101000a900473ffffffffffffffffffffffffffffffffffffffff1673ffffffffffffffffffffffffffffffffffffffff166351cff8d9336040518263ffffffff1660e01b815260040162000fa49190620022d1565b600060405180830381600087803b15801562000fbf57600080fd5b505af115801562000fd4573d6000803e3d6000fd5b505050507f47f2c3763ec750721e450f8dcd9e7adc9d0283506e0cd1466a5ac204bfcfdf2f33604051620010099190620022d1565b60405180910390a1506200101c62001378565b50565b806200102b8162001382565b6200106d576040517f08c379a0000000000000000000000000000000000000000000000000000000008152600401620010649062001d7f565b60405180910390fd5b6200107762001305565b600060026000848152602001908152602001600020905060008160000160009054906101000a900473ffffffffffffffffffffffffffffffffffffffff1690508160060154421162001100576040517f08c379a0000000000000000000000000000000000000000000000000000000008152600401620010f79062001f47565b60405180910390fd5b60008173ffffffffffffffffffffffffffffffffffffffff16346040516024016040516020818303038152906040527fa289d187000000000000000000000000000000000000000000000000000000007bffffffffffffffffffffffffffffffffffffffffffffffffffffffff19166020820180517bffffffffffffffffffffffffffffffffffffffffffffffffffffffff8381831617835250505050604051620011ac919062002330565b60006040518083038185875af1925050503d8060008114620011eb576040519150601f19603f3d011682016040523d82523d6000602084013e620011f0565b606091505b505090508062001237576040517f08c379a00000000000000000000000000000000000000000000000000000000081526004016200122e9062002185565b60405180910390fd5b7f7da74e7bf6701d6c8365edee42bd3bc68b18c498755ae1715956ce190538596433346040516200126a9291906200204d565b60405180910390a15050506200127f62001378565b5050565b60026020528060005260406000206000915090508060000160009054906101000a900473ffffffffffffffffffffffffffffffffffffffff16908060010154908060020154908060030154908060040160009054906101000a900473ffffffffffffffffffffffffffffffffffffffff16908060050154908060060154905087565b6002600054036200134d576040517f08c379a0000000000000000000000000000000000000000000000000000000008152600401620013449062002399565b60405180910390fd5b6002600081905550565b6000620013656001620013f1565b905090565b620013766001620013ff565b565b6001600081905550565b60008073ffffffffffffffffffffffffffffffffffffffff166002600084815260200190815260200160002060040160009054906101000a900473ffffffffffffffffffffffffffffffffffffffff1673ffffffffffffffffffffffffffffffffffffffff1614159050919050565b600081600001549050919050565b6001816000016000828254019250508190555050565b61281180620023bc83390190565b6000604051905090565b600080fd5b600080fd5b6000819050919050565b6200144c8162001437565b81146200145857600080fd5b50565b6000813590506200146c8162001441565b92915050565b600080fd5b600080fd5b6000601f19601f8301169050919050565b7f4e487b7100000000000000000000000000000000000000000000000000000000600052604160045260246000fd5b620014c7826200147c565b810181811067ffffffffffffffff82111715620014e957620014e86200148d565b5b80604052505050565b6000620014fe62001423565b90506200150c8282620014bc565b919050565b600067ffffffffffffffff8211156200152f576200152e6200148d565b5b6200153a826200147c565b9050602081019050919050565b82818337600083830152505050565b60006200156d620015678462001511565b620014f2565b9050828152602081018484840111156200158c576200158b62001477565b5b6200159984828562001547565b509392505050565b600082601f830112620015b957620015b862001472565b5b8135620015cb84826020860162001556565b91505092915050565b60008060008060008060c08789031215620015f457620015f36200142d565b5b60006200160489828a016200145b565b96505060206200161789828a016200145b565b95505060406200162a89828a016200145b565b945050606087013567ffffffffffffffff8111156200164e576200164d62001432565b5b6200165c89828a01620015a1565b935050608087013567ffffffffffffffff81111562001680576200167f62001432565b5b6200168e89828a01620015a1565b92505060a0620016a189828a016200145b565b9150509295509295509295565b60008060408385031215620016c857620016c76200142d565b5b6000620016d8858286016200145b565b9250506020620016eb858286016200145b565b9150509250929050565b6000602082840312156200170e576200170d6200142d565b5b60006200171e848285016200145b565b91505092915050565b600073ffffffffffffffffffffffffffffffffffffffff82169050919050565b6000819050919050565b6000620017726200176c620017668462001727565b62001747565b62001727565b9050919050565b6000620017868262001751565b9050919050565b60006200179a8262001779565b9050919050565b620017ac816200178d565b82525050565b620017bd8162001437565b82525050565b6000620017d08262001727565b9050919050565b620017e281620017c3565b82525050565b600060e082019050620017ff600083018a620017a1565b6200180e6020830189620017b2565b6200181d6040830188620017b2565b6200182c6060830187620017b2565b6200183b6080830186620017d7565b6200184a60a0830185620017b2565b6200185960c0830184620017b2565b98975050505050505050565b600082825260208201905092915050565b7f4d696e696d756d20496e766573746d656e742073686f756c64206e6f7420626560008201527f207a65726f200000000000000000000000000000000000000000000000000000602082015250565b6000620018d460268362001865565b9150620018e18262001876565b604082019050919050565b600060208201905081810360008301526200190781620018c5565b9050919050565b7f4d6178696d756d20496e766573746d656e742073686f756c64206e6f7420626560008201527f207a65726f200000000000000000000000000000000000000000000000000000602082015250565b60006200196c60268362001865565b915062001979826200190e565b604082019050919050565b600060208201905081810360008301526200199f816200195d565b9050919050565b7f496e76616c696420696e766572746f7273202500000000000000000000000000600082015250565b6000620019de60138362001865565b9150620019eb82620019a6565b602082019050919050565b6000602082019050818103600083015262001a1181620019cf565b9050919050565b7f546f6b656e20737570706c792073686f756c64206e6f74206265207a65726f20600082015250565b600062001a5060208362001865565b915062001a5d8262001a18565b602082019050919050565b6000602082019050818103600083015262001a838162001a41565b9050919050565b600081519050919050565b60005b8381101562001ab557808201518184015260208101905062001a98565b8381111562001ac5576000848401525b50505050565b600062001ad88262001a8a565b62001ae4818562001865565b935062001af681856020860162001a95565b62001b01816200147c565b840191505092915050565b6000606082019050818103600083015262001b28818662001acb565b9050818103602083015262001b3e818562001acb565b905062001b4f6040830184620017b2565b949350505050565b60008151905062001b688162001441565b92915050565b60006020828403121562001b875762001b866200142d565b5b600062001b978482850162001b57565b91505092915050565b7f4e487b7100000000000000000000000000000000000000000000000000000000600052601160045260246000fd5b600062001bdc8262001437565b915062001be98362001437565b9250817fffffffffffffffffffffffffffffffffffffffffffffffffffffffffffffffff048311821515161562001c255762001c2462001ba0565b5b828202905092915050565b7f4e487b7100000000000000000000000000000000000000000000000000000000600052601260045260246000fd5b600062001c6c8262001437565b915062001c798362001437565b92508262001c8c5762001c8b62001c30565b5b828204905092915050565b600062001ca48262001437565b915062001cb18362001437565b92508282101562001cc75762001cc662001ba0565b5b828203905092915050565b600062001cdf8262001437565b915062001cec8362001437565b9250827fffffffffffffffffffffffffffffffffffffffffffffffffffffffffffffffff0382111562001d245762001d2362001ba0565b5b828201905092915050565b7f50726f706572747920646f6573206e6f74204578697374000000000000000000600082015250565b600062001d6760178362001865565b915062001d748262001d2f565b602082019050919050565b6000602082019050818103600083015262001d9a8162001d58565b9050919050565b7f496e76616c696420496e76657374656420457468657200000000000000000000600082015250565b600062001dd960168362001865565b915062001de68262001da1565b602082019050919050565b6000602082019050818103600083015262001e0c8162001dca565b9050919050565b7f46756e642072616973696e672074696d6520636f6d706c657465640000000000600082015250565b600062001e4b601b8362001865565b915062001e588262001e13565b602082019050919050565b6000602082019050818103600083015262001e7e8162001e3c565b9050919050565b7f4d617a696d756d2046756e64696e672052656163686564000000000000000000600082015250565b600062001ebd60178362001865565b915062001eca8262001e85565b602082019050919050565b6000602082019050818103600083015262001ef08162001eae565b9050919050565b7f496e766573746d656e742072616973696e6720697320676f696e67206f6e0000600082015250565b600062001f2f601e8362001865565b915062001f3c8262001ef7565b602082019050919050565b6000602082019050818103600083015262001f628162001f20565b9050919050565b7f596f7520617265206e6f7420617574686f72697a656420696e766573746f7200600082015250565b600062001fa1601f8362001865565b915062001fae8262001f69565b602082019050919050565b6000602082019050818103600083015262001fd48162001f92565b9050919050565b7f546f6b656e20636c61696d656400000000000000000000000000000000000000600082015250565b600062002013600d8362001865565b9150620020208262001fdb565b602082019050919050565b60006020820190508181036000830152620020468162002004565b9050919050565b6000604082019050620020646000830185620017d7565b620020736020830184620017b2565b9392505050565b60008115159050919050565b62002091816200207a565b81146200209d57600080fd5b50565b600081519050620020b18162002086565b92915050565b600060208284031215620020d057620020cf6200142d565b5b6000620020e084828501620020a0565b91505092915050565b600081905092915050565b50565b600062002106600083620020e9565b91506200211382620020f4565b600082019050919050565b60006200212b82620020f7565b9150819050919050565b7f4661696c656420746f2073656e64204574686572000000000000000000000000600082015250565b60006200216d60148362001865565b91506200217a8262002135565b602082019050919050565b60006020820190508181036000830152620021a0816200215e565b9050919050565b7f546f6b656e20636c61696d6564207375636365737366756c6c79000000000000600082015250565b6000620021df601a8362001865565b9150620021ec82620021a7565b602082019050919050565b60006040820190506200220e6000830184620017d7565b81810360208301526200222181620021d0565b905092915050565b7f45746865722072657475726e65642064756520746f20756e646572207375627360008201527f6372697074696f6e000000000000000000000000000000000000000000000000602082015250565b60006200228760288362001865565b9150620022948262002229565b604082019050919050565b6000604082019050620022b66000830184620017d7565b8181036020830152620022c98162002278565b905092915050565b6000602082019050620022e86000830184620017d7565b92915050565b600081519050919050565b60006200230682620022ee565b620023128185620020e9565b93506200232481856020860162001a95565b80840191505092915050565b60006200233e8284620022f9565b915081905092915050565b7f5265656e7472616e637947756172643a207265656e7472616e742063616c6c00600082015250565b600062002381601f8362001865565b91506200238e8262002349565b602082019050919050565b60006020820190508181036000830152620023b48162002372565b905091905056fe60806040523480156200001157600080fd5b506040516200281138038062002811833981810160405281019062000037919062000602565b828281600390816200004a9190620008dd565b5080600490816200005c9190620008dd565b5050506200009b3362000074620000a460201b60201c565b600a62000082919062000b54565b836200008f919062000ba5565b620000ad60201b60201c565b50505062000de3565b60006012905090565b600073ffffffffffffffffffffffffffffffffffffffff168273ffffffffffffffffffffffffffffffffffffffff16036200011f576040517f08c379a0000000000000000000000000000000000000000000000000000000008152600401620001169062000c67565b60405180910390fd5b62000133600083836200021a60201b60201c565b806002600082825462000147919062000c89565b92505081905550806000808473ffffffffffffffffffffffffffffffffffffffff1673ffffffffffffffffffffffffffffffffffffffff168152602001908152602001600020600082825401925050819055508173ffffffffffffffffffffffffffffffffffffffff16600073ffffffffffffffffffffffffffffffffffffffff167fddf252ad1be2c89b69c2b068fc378daa952ba7f163c4a11628f55a4df523b3ef83604051620001fa919062000cf7565b60405180910390a362000216600083836200028d60201b60201c565b5050565b6200022b836200029260201b60201c565b15801562000247575062000245826200029260201b60201c565b155b1562000270576200025e83620002a560201b60201c565b6200026f82620002a560201b60201c565b5b620002888383836200042560201b620009d11760201c565b505050565b505050565b600080823b905060008111915050919050565b6000600760008373ffffffffffffffffffffffffffffffffffffffff1673ffffffffffffffffffffffffffffffffffffffff16815260200190815260200160002054600554620002f6919062000d14565b9050803073ffffffffffffffffffffffffffffffffffffffff166370a08231846040518263ffffffff1660e01b815260040162000334919062000d94565b602060405180830381865afa15801562000352573d6000803e3d6000fd5b505050506040513d601f19601f8201168201806040525081019062000378919062000db1565b62000384919062000ba5565b600660008473ffffffffffffffffffffffffffffffffffffffff1673ffffffffffffffffffffffffffffffffffffffff1681526020019081526020016000206000828254620003d4919062000c89565b92505081905550600554600760008473ffffffffffffffffffffffffffffffffffffffff1673ffffffffffffffffffffffffffffffffffffffff168152602001908152602001600020819055505050565b505050565b6000604051905090565b600080fd5b600080fd5b600080fd5b600080fd5b6000601f19601f8301169050919050565b7f4e487b7100000000000000000000000000000000000000000000000000000000600052604160045260246000fd5b620004938262000448565b810181811067ffffffffffffffff82111715620004b557620004b462000459565b5b80604052505050565b6000620004ca6200042a565b9050620004d8828262000488565b919050565b600067ffffffffffffffff821115620004fb57620004fa62000459565b5b620005068262000448565b9050602081019050919050565b60005b838110156200053357808201518184015260208101905062000516565b8381111562000543576000848401525b50505050565b6000620005606200055a84620004dd565b620004be565b9050828152602081018484840111156200057f576200057e62000443565b5b6200058c84828562000513565b509392505050565b600082601f830112620005ac57620005ab6200043e565b5b8151620005be84826020860162000549565b91505092915050565b6000819050919050565b620005dc81620005c7565b8114620005e857600080fd5b50565b600081519050620005fc81620005d1565b92915050565b6000806000606084860312156200061e576200061d62000434565b5b600084015167ffffffffffffffff8111156200063f576200063e62000439565b5b6200064d8682870162000594565b935050602084015167ffffffffffffffff81111562000671576200067062000439565b5b6200067f8682870162000594565b92505060406200069286828701620005eb565b9150509250925092565b600081519050919050565b7f4e487b7100000000000000000000000000000000000000000000000000000000600052602260045260246000fd5b60006002820490506001821680620006ef57607f821691505b602082108103620007055762000704620006a7565b5b50919050565b60008190508160005260206000209050919050565b60006020601f8301049050919050565b600082821b905092915050565b6000600883026200076f7fffffffffffffffffffffffffffffffffffffffffffffffffffffffffffffffff8262000730565b6200077b868362000730565b95508019841693508086168417925050509392505050565b6000819050919050565b6000620007be620007b8620007b284620005c7565b62000793565b620005c7565b9050919050565b6000819050919050565b620007da836200079d565b620007f2620007e982620007c5565b8484546200073d565b825550505050565b600090565b62000809620007fa565b62000816818484620007cf565b505050565b5b818110156200083e5762000832600082620007ff565b6001810190506200081c565b5050565b601f8211156200088d5762000857816200070b565b620008628462000720565b8101602085101562000872578190505b6200088a620008818562000720565b8301826200081b565b50505b505050565b600082821c905092915050565b6000620008b26000198460080262000892565b1980831691505092915050565b6000620008cd83836200089f565b9150826002028217905092915050565b620008e8826200069c565b67ffffffffffffffff81111562000904576200090362000459565b5b620009108254620006d6565b6200091d82828562000842565b600060209050601f83116001811462000955576000841562000940578287015190505b6200094c8582620008bf565b865550620009bc565b601f19841662000965866200070b565b60005b828110156200098f5784890151825560018201915060208501945060208101905062000968565b86831015620009af5784890151620009ab601f8916826200089f565b8355505b6001600288020188555050505b505050505050565b7f4e487b7100000000000000000000000000000000000000000000000000000000600052601160045260246000fd5b60008160011c9050919050565b6000808291508390505b600185111562000a525780860481111562000a2a5762000a29620009c4565b5b600185161562000a3a5780820291505b808102905062000a4a85620009f3565b945062000a0a565b94509492505050565b60008262000a6d576001905062000b40565b8162000a7d576000905062000b40565b816001811462000a96576002811462000aa15762000ad7565b600191505062000b40565b60ff84111562000ab65762000ab5620009c4565b5b8360020a91508482111562000ad05762000acf620009c4565b5b5062000b40565b5060208310610133831016604e8410600b841016171562000b115782820a90508381111562000b0b5762000b0a620009c4565b5b62000b40565b62000b20848484600162000a00565b9250905081840481111562000b3a5762000b39620009c4565b5b81810290505b9392505050565b600060ff82169050919050565b600062000b6182620005c7565b915062000b6e8362000b47565b925062000b9d7fffffffffffffffffffffffffffffffffffffffffffffffffffffffffffffffff848462000a5b565b905092915050565b600062000bb282620005c7565b915062000bbf83620005c7565b9250817fffffffffffffffffffffffffffffffffffffffffffffffffffffffffffffffff048311821515161562000bfb5762000bfa620009c4565b5b828202905092915050565b600082825260208201905092915050565b7f45524332303a206d696e7420746f20746865207a65726f206164647265737300600082015250565b600062000c4f601f8362000c06565b915062000c5c8262000c17565b602082019050919050565b6000602082019050818103600083015262000c828162000c40565b9050919050565b600062000c9682620005c7565b915062000ca383620005c7565b9250827fffffffffffffffffffffffffffffffffffffffffffffffffffffffffffffffff0382111562000cdb5762000cda620009c4565b5b828201905092915050565b62000cf181620005c7565b82525050565b600060208201905062000d0e600083018462000ce6565b92915050565b600062000d2182620005c7565b915062000d2e83620005c7565b92508282101562000d445762000d43620009c4565b5b828203905092915050565b600073ffffffffffffffffffffffffffffffffffffffff82169050919050565b600062000d7c8262000d4f565b9050919050565b62000d8e8162000d6f565b82525050565b600060208201905062000dab600083018462000d83565b92915050565b60006020828403121562000dca5762000dc962000434565b5b600062000dda84828501620005eb565b91505092915050565b611a1e8062000df36000396000f3fe6080604052600436106100f75760003560e01c806377ec0feb1161008a578063a9059cbb11610059578063a9059cbb1461033b578063dd62ed3e14610378578063e083d4c8146103b5578063f86836d9146103f2576100fe565b806377ec0feb1461029e57806395d89b41146102c9578063a289d187146102f4578063a457c2d7146102fe576100fe565b8063313ce567116100c6578063313ce567146101d057806339509351146101fb57806351cff8d91461023857806370a0823114610261576100fe565b806306fdde0314610100578063095ea7b31461012b57806318160ddd1461016857806323b872dd14610193576100fe565b366100fe57005b005b34801561010c57600080fd5b5061011561042f565b6040516101229190611113565b60405180910390f35b34801561013757600080fd5b50610152600480360381019061014d91906111ce565b6104c1565b60405161015f9190611229565b60405180910390f35b34801561017457600080fd5b5061017d6104e4565b60405161018a9190611253565b60405180910390f35b34801561019f57600080fd5b506101ba60048036038101906101b5919061126e565b6104ee565b6040516101c79190611229565b60405180910390f35b3480156101dc57600080fd5b506101e561051d565b6040516101f291906112dd565b60405180910390f35b34801561020757600080fd5b50610222600480360381019061021d91906111ce565b610526565b60405161022f9190611229565b60405180910390f35b34801561024457600080fd5b5061025f600480360381019061025a91906112f8565b61055d565b005b34801561026d57600080fd5b50610288600480360381019061028391906112f8565b61066d565b6040516102959190611253565b60405180910390f35b3480156102aa57600080fd5b506102b36106b5565b6040516102c09190611253565b60405180910390f35b3480156102d557600080fd5b506102de6106bb565b6040516102eb9190611113565b60405180910390f35b6102fc61074d565b005b34801561030a57600080fd5b50610325600480360381019061032091906111ce565b610880565b6040516103329190611229565b60405180910390f35b34801561034757600080fd5b50610362600480360381019061035d91906111ce565b6108f7565b60405161036f9190611229565b60405180910390f35b34801561038457600080fd5b5061039f600480360381019061039a9190611325565b61091a565b6040516103ac9190611253565b60405180910390f35b3480156103c157600080fd5b506103dc60048036038101906103d791906112f8565b6109a1565b6040516103e99190611253565b60405180910390f35b3480156103fe57600080fd5b50610419600480360381019061041491906112f8565b6109b9565b6040516104269190611253565b60405180910390f35b60606003805461043e90611394565b80601f016020809104026020016040519081016040528092919081815260200182805461046a90611394565b80156104b75780601f1061048c576101008083540402835291602001916104b7565b820191906000526020600020905b81548152906001019060200180831161049a57829003601f168201915b5050505050905090565b6000806104cc6109d6565b90506104d98185856109de565b600191505092915050565b6000600254905090565b6000806104f96109d6565b9050610506858285610ba7565b610511858585610c33565b60019150509392505050565b60006012905090565b6000806105316109d6565b9050610552818585610543858961091a565b61054d91906113f4565b6109de565b600191505092915050565b61056681610ea9565b6000600660008373ffffffffffffffffffffffffffffffffffffffff1673ffffffffffffffffffffffffffffffffffffffff1681526020019081526020016000205490506000600660008473ffffffffffffffffffffffffffffffffffffffff1673ffffffffffffffffffffffffffffffffffffffff1681526020019081526020016000208190555060008273ffffffffffffffffffffffffffffffffffffffff166108fc839081150290604051600060405180830381858888f19350505050905080610668576040517f08c379a000000000000000000000000000000000000000000000000000000000815260040161065f90611496565b60405180910390fd5b505050565b60008060008373ffffffffffffffffffffffffffffffffffffffff1673ffffffffffffffffffffffffffffffffffffffff168152602001908152602001600020549050919050565b60055481565b6060600480546106ca90611394565b80601f01602080910402602001604051908101604052809291908181526020018280546106f690611394565b80156107435780601f1061071857610100808354040283529160200191610743565b820191906000526020600020905b81548152906001019060200180831161072657829003601f168201915b5050505050905090565b3073ffffffffffffffffffffffffffffffffffffffff166318160ddd6040518163ffffffff1660e01b8152600401602060405180830381865afa158015610798573d6000803e3d6000fd5b505050506040513d601f19601f820116820180604052508101906107bc91906114cb565b346107c79190611527565b600560008282546107d891906113f4565b925050819055506005543073ffffffffffffffffffffffffffffffffffffffff166318160ddd6040518163ffffffff1660e01b8152600401602060405180830381865afa15801561082d573d6000803e3d6000fd5b505050506040513d601f19601f8201168201806040525081019061085191906114cb565b347f2229fe50c1cd7b9133e4e9dd4e5dde0d9cc1bf031e35c9b5d8047f31ab8ff12360405160405180910390a4565b60008061088b6109d6565b90506000610899828661091a565b9050838110156108de576040517f08c379a00000000000000000000000000000000000000000000000000000000081526004016108d5906115ca565b60405180910390fd5b6108eb82868684036109de565b60019250505092915050565b6000806109026109d6565b905061090f818585610c33565b600191505092915050565b6000600160008473ffffffffffffffffffffffffffffffffffffffff1673ffffffffffffffffffffffffffffffffffffffff16815260200190815260200160002060008373ffffffffffffffffffffffffffffffffffffffff1673ffffffffffffffffffffffffffffffffffffffff16815260200190815260200160002054905092915050565b60066020528060005260406000206000915090505481565b60076020528060005260406000206000915090505481565b505050565b600033905090565b600073ffffffffffffffffffffffffffffffffffffffff168373ffffffffffffffffffffffffffffffffffffffff1603610a4d576040517f08c379a0000000000000000000000000000000000000000000000000000000008152600401610a449061165c565b60405180910390fd5b600073ffffffffffffffffffffffffffffffffffffffff168273ffffffffffffffffffffffffffffffffffffffff1603610abc576040517f08c379a0000000000000000000000000000000000000000000000000000000008152600401610ab3906116ee565b60405180910390fd5b80600160008573ffffffffffffffffffffffffffffffffffffffff1673ffffffffffffffffffffffffffffffffffffffff16815260200190815260200160002060008473ffffffffffffffffffffffffffffffffffffffff1673ffffffffffffffffffffffffffffffffffffffff168152602001908152602001600020819055508173ffffffffffffffffffffffffffffffffffffffff168373ffffffffffffffffffffffffffffffffffffffff167f8c5be1e5ebec7d5bd14f71427d1e84f3dd0314c0f7b2291e5b200ac8c7c3b92583604051610b9a9190611253565b60405180910390a3505050565b6000610bb3848461091a565b90507fffffffffffffffffffffffffffffffffffffffffffffffffffffffffffffffff8114610c2d5781811015610c1f576040517f08c379a0000000000000000000000000000000000000000000000000000000008152600401610c169061175a565b60405180910390fd5b610c2c84848484036109de565b5b50505050565b600073ffffffffffffffffffffffffffffffffffffffff168373ffffffffffffffffffffffffffffffffffffffff1603610ca2576040517f08c379a0000000000000000000000000000000000000000000000000000000008152600401610c99906117ec565b60405180910390fd5b600073ffffffffffffffffffffffffffffffffffffffff168273ffffffffffffffffffffffffffffffffffffffff1603610d11576040517f08c379a0000000000000000000000000000000000000000000000000000000008152600401610d089061187e565b60405180910390fd5b610d1c83838361101e565b60008060008573ffffffffffffffffffffffffffffffffffffffff1673ffffffffffffffffffffffffffffffffffffffff16815260200190815260200160002054905081811015610da2576040517f08c379a0000000000000000000000000000000000000000000000000000000008152600401610d9990611910565b60405180910390fd5b8181036000808673ffffffffffffffffffffffffffffffffffffffff1673ffffffffffffffffffffffffffffffffffffffff16815260200190815260200160002081905550816000808573ffffffffffffffffffffffffffffffffffffffff1673ffffffffffffffffffffffffffffffffffffffff168152602001908152602001600020600082825401925050819055508273ffffffffffffffffffffffffffffffffffffffff168473ffffffffffffffffffffffffffffffffffffffff167fddf252ad1be2c89b69c2b068fc378daa952ba7f163c4a11628f55a4df523b3ef84604051610e909190611253565b60405180910390a3610ea3848484611062565b50505050565b6000600760008373ffffffffffffffffffffffffffffffffffffffff1673ffffffffffffffffffffffffffffffffffffffff16815260200190815260200160002054600554610ef89190611930565b9050803073ffffffffffffffffffffffffffffffffffffffff166370a08231846040518263ffffffff1660e01b8152600401610f349190611973565b602060405180830381865afa158015610f51573d6000803e3d6000fd5b505050506040513d601f19601f82011682018060405250810190610f7591906114cb565b610f7f919061198e565b600660008473ffffffffffffffffffffffffffffffffffffffff1673ffffffffffffffffffffffffffffffffffffffff1681526020019081526020016000206000828254610fcd91906113f4565b92505081905550600554600760008473ffffffffffffffffffffffffffffffffffffffff1673ffffffffffffffffffffffffffffffffffffffff168152602001908152602001600020819055505050565b61102783611067565b15801561103a575061103882611067565b155b156110525761104883610ea9565b61105182610ea9565b5b61105d8383836109d1565b505050565b505050565b600080823b905060008111915050919050565b600081519050919050565b600082825260208201905092915050565b60005b838110156110b4578082015181840152602081019050611099565b838111156110c3576000848401525b50505050565b6000601f19601f8301169050919050565b60006110e58261107a565b6110ef8185611085565b93506110ff818560208601611096565b611108816110c9565b840191505092915050565b6000602082019050818103600083015261112d81846110da565b905092915050565b600080fd5b600073ffffffffffffffffffffffffffffffffffffffff82169050919050565b60006111658261113a565b9050919050565b6111758161115a565b811461118057600080fd5b50565b6000813590506111928161116c565b92915050565b6000819050919050565b6111ab81611198565b81146111b657600080fd5b50565b6000813590506111c8816111a2565b92915050565b600080604083850312156111e5576111e4611135565b5b60006111f385828601611183565b9250506020611204858286016111b9565b9150509250929050565b60008115159050919050565b6112238161120e565b82525050565b600060208201905061123e600083018461121a565b92915050565b61124d81611198565b82525050565b60006020820190506112686000830184611244565b92915050565b60008060006060848603121561128757611286611135565b5b600061129586828701611183565b93505060206112a686828701611183565b92505060406112b7868287016111b9565b9150509250925092565b600060ff82169050919050565b6112d7816112c1565b82525050565b60006020820190506112f260008301846112ce565b92915050565b60006020828403121561130e5761130d611135565b5b600061131c84828501611183565b91505092915050565b6000806040838503121561133c5761133b611135565b5b600061134a85828601611183565b925050602061135b85828601611183565b9150509250929050565b7f4e487b7100000000000000000000000000000000000000000000000000000000600052602260045260246000fd5b600060028204905060018216806113ac57607f821691505b6020821081036113bf576113be611365565b5b50919050565b7f4e487b7100000000000000000000000000000000000000000000000000000000600052601160045260246000fd5b60006113ff82611198565b915061140a83611198565b9250827fffffffffffffffffffffffffffffffffffffffffffffffffffffffffffffffff0382111561143f5761143e6113c5565b5b828201905092915050565b7f4661696c656420746f2077697468647261772072656e74000000000000000000600082015250565b6000611480601783611085565b915061148b8261144a565b602082019050919050565b600060208201905081810360008301526114af81611473565b9050919050565b6000815190506114c5816111a2565b92915050565b6000602082840312156114e1576114e0611135565b5b60006114ef848285016114b6565b91505092915050565b7f4e487b7100000000000000000000000000000000000000000000000000000000600052601260045260246000fd5b600061153282611198565b915061153d83611198565b92508261154d5761154c6114f8565b5b828204905092915050565b7f45524332303a2064656372656173656420616c6c6f77616e63652062656c6f7760008201527f207a65726f000000000000000000000000000000000000000000000000000000602082015250565b60006115b4602583611085565b91506115bf82611558565b604082019050919050565b600060208201905081810360008301526115e3816115a7565b9050919050565b7f45524332303a20617070726f76652066726f6d20746865207a65726f2061646460008201527f7265737300000000000000000000000000000000000000000000000000000000602082015250565b6000611646602483611085565b9150611651826115ea565b604082019050919050565b6000602082019050818103600083015261167581611639565b9050919050565b7f45524332303a20617070726f766520746f20746865207a65726f20616464726560008201527f7373000000000000000000000000000000000000000000000000000000000000602082015250565b60006116d8602283611085565b91506116e38261167c565b604082019050919050565b60006020820190508181036000830152611707816116cb565b9050919050565b7f45524332303a20696e73756666696369656e7420616c6c6f77616e6365000000600082015250565b6000611744601d83611085565b915061174f8261170e565b602082019050919050565b6000602082019050818103600083015261177381611737565b9050919050565b7f45524332303a207472616e736665722066726f6d20746865207a65726f20616460008201527f6472657373000000000000000000000000000000000000000000000000000000602082015250565b60006117d6602583611085565b91506117e18261177a565b604082019050919050565b60006020820190508181036000830152611805816117c9565b9050919050565b7f45524332303a207472616e7366657220746f20746865207a65726f206164647260008201527f6573730000000000000000000000000000000000000000000000000000000000602082015250565b6000611868602383611085565b91506118738261180c565b604082019050919050565b600060208201905081810360008301526118978161185b565b9050919050565b7f45524332303a207472616e7366657220616d6f756e742065786365656473206260008201527f616c616e63650000000000000000000000000000000000000000000000000000602082015250565b60006118fa602683611085565b91506119058261189e565b604082019050919050565b60006020820190508181036000830152611929816118ed565b9050919050565b600061193b82611198565b915061194683611198565b925082821015611959576119586113c5565b5b828203905092915050565b61196d8161115a565b82525050565b60006020820190506119886000830184611964565b92915050565b600061199982611198565b91506119a483611198565b9250817fffffffffffffffffffffffffffffffffffffffffffffffffffffffffffffffff04831182151516156119dd576119dc6113c5565b5b82820290509291505056fea264697066735822122018571a48bef2987a8b382b332119e640de737cac86ff04eaa21ed73d30b84f2164736f6c634300080f0033a2646970667358221220157f79c757208a9aee10e16c1cfb68c6309efb9683ce95882cf732919841fc2364736f6c634300080f0033",
  "immutableReferences": {},
  "source": "// SPDX-License-Identifier: MIT\r\npragma solidity >=0.4.22 <0.9.0;\r\n\r\nimport \"@openzeppelin/contracts/utils/Counters.sol\";\r\nimport \"@openzeppelin/contracts/security/ReentrancyGuard.sol\";\r\nimport \"./RealEstateToken.sol\";\r\n\r\ncontract RealEstateInvestment is ReentrancyGuard {\r\n    using Counters for Counters.Counter;\r\n    Counters.Counter internal _propertyIds;\r\n\r\n    event DepositRent(address _sender, uint256 _amount);\r\n    event TokenClaimLog(address _addr, string _msg);\r\n    event DividendWithdraw(address _sender);\r\n\r\n    struct Property {\r\n        RealEstateToken token;\r\n        uint256 minimumInvestmentInEther;\r\n        uint256 maximumInvestmentInEther;\r\n        uint256 openForInvertors;\r\n        address propertyOwner;\r\n        uint totalFundRaised;\r\n        uint ICOCutOffPeriod;\r\n    }\r\n\r\n    struct InvestorDetail {\r\n        address investorAddress;\r\n        uint256 investedEther;\r\n    }\r\n\r\n    mapping(uint256 => Property) public properties;\r\n    mapping(uint256 => mapping(address => uint256)) internal investorDetails;\r\n    mapping(uint256 => mapping(address => uint256)) internal tokenOwed;\r\n\r\n    modifier PropertyExist(uint _propertyId) {\r\n        require(isPropertyExist(_propertyId), \"Property does not Exist\");\r\n        _;\r\n    }\r\n\r\n    function listPropertyByOwner(\r\n        uint256 _minimumInvestmentInEther,\r\n        uint256 _maximumInvestmentInEther,\r\n        uint256 _openForInvertors,\r\n        string memory _tokenName,\r\n        string memory _tokenSymbol,\r\n        uint256 _totalTokenSupply\r\n    ) external nonReentrant {\r\n        require(\r\n            _minimumInvestmentInEther > 0,\r\n            \"Minimum Investment should not be zero \"\r\n        );\r\n        require(\r\n            _maximumInvestmentInEther > 0,\r\n            \"Maximum Investment should not be zero \"\r\n        );\r\n        require(\r\n            _openForInvertors > 0 && _openForInvertors < 100,\r\n            \"Invalid invertors %\"\r\n        );\r\n        require(_totalTokenSupply > 0, \"Token supply should not be zero \");\r\n        RealEstateToken newToken = new RealEstateToken(\r\n            _tokenName,\r\n            _tokenSymbol,\r\n            _totalTokenSupply\r\n        );\r\n        uint256 tokenReservedforInvestor = (newToken.totalSupply() *\r\n            _openForInvertors) / 100;\r\n        uint256 tokenReservedforOwner = newToken.totalSupply() -\r\n            tokenReservedforInvestor;\r\n        //newToken.transfer(msg.sender, tokenReservedforOwner);\r\n        tokenOwed[getCounter()][msg.sender] += tokenReservedforOwner;\r\n\r\n        Property memory newPropertyInstance = Property({\r\n            token: newToken,\r\n            minimumInvestmentInEther: _minimumInvestmentInEther,\r\n            maximumInvestmentInEther: _maximumInvestmentInEther,\r\n            openForInvertors: _openForInvertors,\r\n            propertyOwner: msg.sender,\r\n            totalFundRaised: 0,\r\n            ICOCutOffPeriod: block.timestamp + 5 seconds // 1 minutes //1 weeks\r\n        });\r\n        properties[getCounter()] = newPropertyInstance;\r\n        setCounter();\r\n    }\r\n\r\n    function setCounter() internal {\r\n        _propertyIds.increment();\r\n    }\r\n\r\n    function getCounter() internal view returns (uint256) {\r\n        return _propertyIds.current();\r\n    }\r\n\r\n    function isPropertyExist(uint256 _propertyId) internal view returns (bool) {\r\n        return (properties[_propertyId].propertyOwner != address(0));\r\n    }\r\n\r\n    //assuming 1 token = 1 wei\r\n    function investInProperty(\r\n        uint256 _propertyId,\r\n        uint256 _amountInEther\r\n    ) external payable PropertyExist(_propertyId) nonReentrant {\r\n        require(\r\n            _amountInEther == msg.value && _amountInEther > 0,\r\n            \"Invalid Invested Ether\"\r\n        );\r\n        Property storage tempPropertyInstance = properties[_propertyId];\r\n        require(\r\n            block.timestamp < tempPropertyInstance.ICOCutOffPeriod,\r\n            \"Fund raising time completed\"\r\n        );\r\n        require(tempPropertyInstance.totalFundRaised + _amountInEther <= tempPropertyInstance.maximumInvestmentInEther,\"Mazimum Funding Reached\");\r\n        uint256 grantToken = msg.value;\r\n        investorDetails[_propertyId][msg.sender] += msg.value;\r\n        tokenOwed[_propertyId][msg.sender] += grantToken;\r\n        tempPropertyInstance.totalFundRaised += _amountInEther;\r\n    }\r\n\r\n    function claimToken(\r\n        uint256 _propertyId\r\n    ) external PropertyExist(_propertyId) nonReentrant {\r\n        Property storage tempPropertyInstance = properties[_propertyId];\r\n        require(\r\n            block.timestamp > tempPropertyInstance.ICOCutOffPeriod,\r\n            \"Investment raising is going on\"\r\n        );\r\n        address tokenAddr = address(tempPropertyInstance.token);\r\n        require(\r\n            investorDetails[_propertyId][msg.sender] != 0,\r\n            \"You are not authorized investor\"\r\n        );\r\n        require(tokenOwed[_propertyId][msg.sender] > 0, \"Token claimed\");\r\n        if (\r\n            tempPropertyInstance.totalFundRaised >=\r\n            tempPropertyInstance.minimumInvestmentInEther\r\n        ) {\r\n            uint tokenBalance = tokenOwed[_propertyId][msg.sender];\r\n            (tempPropertyInstance.token).transfer(msg.sender, tokenBalance);\r\n            tokenOwed[_propertyId][msg.sender] = 0;\r\n            (bool sent, ) = tokenAddr.call{\r\n                value: investorDetails[_propertyId][msg.sender]\r\n            }(\"\");\r\n            require(sent, \"Failed to send Ether\");\r\n            emit TokenClaimLog(msg.sender, \"Token claimed successfully\");\r\n        } else {\r\n            tokenOwed[_propertyId][msg.sender] = 0;\r\n            uint returnEther = investorDetails[_propertyId][msg.sender];\r\n            investorDetails[_propertyId][msg.sender] = 0;\r\n            payable(msg.sender).transfer(returnEther);\r\n            emit TokenClaimLog(\r\n                msg.sender,\r\n                \"Ether returned due to under subscription\"\r\n            );\r\n        }\r\n    }\r\n\r\n    function depositRent(\r\n        uint256 _propertyId\r\n    ) external payable PropertyExist(_propertyId) nonReentrant {\r\n        Property storage tempPropertyInstance = properties[_propertyId];\r\n        address tokenAddr = address(tempPropertyInstance.token);\r\n        require(\r\n            block.timestamp > tempPropertyInstance.ICOCutOffPeriod,\r\n            \"Investment raising is going on\"\r\n        );\r\n        (bool sent, ) = tokenAddr.call{value: msg.value}(\r\n            abi.encodeWithSignature(\"depositDividend()\")\r\n        );\r\n        require(sent, \"Failed to send Ether\");\r\n        emit DepositRent(msg.sender, msg.value);\r\n    }\r\n\r\n    function withDrawDividend(uint256 _propertyId) external nonReentrant {\r\n        require(isPropertyExist(_propertyId), \"Property does not Exist\");\r\n        Property storage tempPropertyInstance = properties[_propertyId];\r\n        require(\r\n            block.timestamp > tempPropertyInstance.ICOCutOffPeriod,\r\n            \"Investment raising is going on\"\r\n        );\r\n        tempPropertyInstance.token.withdraw(msg.sender);\r\n        emit DividendWithdraw( msg.sender);\r\n    }\r\n\r\n}\r\n",
  "sourcePath": "/Users/prasenjitgupta/Desktop/Blockchain/RealEstateTokanization/contracts/RealEstateInvestment.sol",
  "compiler": {
    "name": "solc",
    "version": "0.8.15+commit.e14f2714.Emscripten.clang"
  },
  "schemaVersion": "3.4.8",
  "updatedAt": "2023-05-15T14:12:54.709Z",
  "networkType": "ethereum",
  "devdoc": {
    "kind": "dev",
    "methods": {},
    "version": 1
  },
  "userdoc": {
    "kind": "user",
    "methods": {},
    "version": 1
  }
}